{
	"_format": "hh-sol-artifact-1",
	"contractName": "MySBT",
	"sourceName": "contracts/MySBT.sol",
	"abi": [
		{
			"inputs": [
				{
					"internalType": "string",
					"name": "_name",
					"type": "string"
				}
			],
			"stateMutability": "nonpayable",
			"type": "constructor"
		},
		{
			"inputs": [],
			"name": "ExistingToken",
			"type": "error"
		},
		{
			"inputs": [],
			"name": "InvalidChoice",
			"type": "error"
		},
		{
			"inputs": [],
			"name": "NonExistingToken",
			"type": "error"
		},
		{
			"inputs": [],
			"name": "NotSelf",
			"type": "error"
		},
		{
			"inputs": [],
			"name": "TransferDisabled",
			"type": "error"
		},
		{
			"anonymous": false,
			"inputs": [
				{
					"indexed": true,
					"internalType": "address",
					"name": "owner",
					"type": "address"
				},
				{
					"indexed": true,
					"internalType": "address",
					"name": "approved",
					"type": "address"
				},
				{
					"indexed": true,
					"internalType": "uint256",
					"name": "tokenId",
					"type": "uint256"
				}
			],
			"name": "Approval",
			"type": "event"
		},
		{
			"anonymous": false,
			"inputs": [
				{
					"indexed": true,
					"internalType": "address",
					"name": "owner",
					"type": "address"
				},
				{
					"indexed": true,
					"internalType": "address",
					"name": "operator",
					"type": "address"
				},
				{
					"indexed": false,
					"internalType": "bool",
					"name": "approved",
					"type": "bool"
				}
			],
			"name": "ApprovalForAll",
			"type": "event"
		},
		{
			"anonymous": false,
			"inputs": [
				{
					"indexed": false,
					"internalType": "address",
					"name": "_to",
					"type": "address"
				}
			],
			"name": "Burn",
			"type": "event"
		},
		{
			"anonymous": false,
			"inputs": [
				{
					"indexed": false,
					"internalType": "address",
					"name": "_to",
					"type": "address"
				}
			],
			"name": "Mint",
			"type": "event"
		},
		{
			"anonymous": false,
			"inputs": [
				{
					"indexed": true,
					"internalType": "address",
					"name": "from",
					"type": "address"
				},
				{
					"indexed": true,
					"internalType": "address",
					"name": "to",
					"type": "address"
				},
				{
					"indexed": true,
					"internalType": "uint256",
					"name": "tokenId",
					"type": "uint256"
				}
			],
			"name": "Transfer",
			"type": "event"
		},
		{
			"anonymous": false,
			"inputs": [
				{
					"indexed": false,
					"internalType": "address",
					"name": "_to",
					"type": "address"
				}
			],
			"name": "Update",
			"type": "event"
		},
		{
			"inputs": [
				{
					"internalType": "address",
					"name": "",
					"type": "address"
				}
			],
			"name": "accountsToIds",
			"outputs": [
				{
					"internalType": "uint256",
					"name": "",
					"type": "uint256"
				}
			],
			"stateMutability": "view",
			"type": "function"
		},
		{
			"inputs": [
				{
					"internalType": "address",
					"name": "to",
					"type": "address"
				},
				{
					"internalType": "uint256",
					"name": "tokenId",
					"type": "uint256"
				}
			],
			"name": "approve",
			"outputs": [],
			"stateMutability": "nonpayable",
			"type": "function"
		},
		{
			"inputs": [
				{
					"internalType": "address",
					"name": "owner",
					"type": "address"
				}
			],
			"name": "balanceOf",
			"outputs": [
				{
					"internalType": "uint256",
					"name": "",
					"type": "uint256"
				}
			],
			"stateMutability": "view",
			"type": "function"
		},
		{
			"inputs": [],
			"name": "contractName",
			"outputs": [
				{
					"internalType": "string",
					"name": "",
					"type": "string"
				}
			],
			"stateMutability": "view",
			"type": "function"
		},
		{
			"inputs": [
				{
					"internalType": "uint256",
					"name": "tokenId",
					"type": "uint256"
				}
			],
			"name": "getApproved",
			"outputs": [
				{
					"internalType": "address",
					"name": "",
					"type": "address"
				}
			],
			"stateMutability": "view",
			"type": "function"
		},
		{
			"inputs": [
				{
					"internalType": "address",
					"name": "to",
					"type": "address"
				}
			],
			"name": "getProfile",
			"outputs": [
				{
					"components": [
						{
							"internalType": "string",
							"name": "identity",
							"type": "string"
						},
						{
							"internalType": "uint256",
							"name": "id",
							"type": "uint256"
						},
						{
							"internalType": "string",
							"name": "profile_uri",
							"type": "string"
						},
						{
							"internalType": "string",
							"name": "data_uri",
							"type": "string"
						}
					],
					"internalType": "struct MySBT.Profile",
					"name": "",
					"type": "tuple"
				}
			],
			"stateMutability": "view",
			"type": "function"
		},
		{
			"inputs": [
				{
					"internalType": "address",
					"name": "to",
					"type": "address"
				}
			],
			"name": "getdataURI",
			"outputs": [
				{
					"internalType": "string",
					"name": "",
					"type": "string"
				}
			],
			"stateMutability": "view",
			"type": "function"
		},
		{
			"inputs": [
				{
					"internalType": "address",
					"name": "to",
					"type": "address"
				}
			],
			"name": "getprofileURI",
			"outputs": [
				{
					"internalType": "string",
					"name": "",
					"type": "string"
				}
			],
			"stateMutability": "view",
			"type": "function"
		},
		{
			"inputs": [
				{
					"internalType": "address",
					"name": "owner",
					"type": "address"
				},
				{
					"internalType": "address",
					"name": "operator",
					"type": "address"
				}
			],
			"name": "isApprovedForAll",
			"outputs": [
				{
					"internalType": "bool",
					"name": "",
					"type": "bool"
				}
			],
			"stateMutability": "view",
			"type": "function"
		},
		{
			"inputs": [],
			"name": "name",
			"outputs": [
				{
					"internalType": "string",
					"name": "",
					"type": "string"
				}
			],
			"stateMutability": "view",
			"type": "function"
		},
		{
			"inputs": [],
			"name": "operator",
			"outputs": [
				{
					"internalType": "address",
					"name": "",
					"type": "address"
				}
			],
			"stateMutability": "view",
			"type": "function"
		},
		{
			"inputs": [
				{
					"internalType": "uint256",
					"name": "tokenId",
					"type": "uint256"
				}
			],
			"name": "ownerOf",
			"outputs": [
				{
					"internalType": "address",
					"name": "",
					"type": "address"
				}
			],
			"stateMutability": "view",
			"type": "function"
		},
		{
			"inputs": [
				{
					"internalType": "address",
					"name": "to",
					"type": "address"
				}
			],
			"name": "safeBurn",
			"outputs": [],
			"stateMutability": "nonpayable",
			"type": "function"
		},
		{
			"inputs": [
				{
					"internalType": "address",
					"name": "to",
					"type": "address"
				},
				{
					"internalType": "string",
					"name": "username",
					"type": "string"
				},
				{
					"internalType": "string",
					"name": "profile_uri",
					"type": "string"
				},
				{
					"internalType": "string",
					"name": "data_uri",
					"type": "string"
				}
			],
			"name": "safeMint",
			"outputs": [],
			"stateMutability": "nonpayable",
			"type": "function"
		},
		{
			"inputs": [
				{
					"internalType": "address",
					"name": "from",
					"type": "address"
				},
				{
					"internalType": "address",
					"name": "to",
					"type": "address"
				},
				{
					"internalType": "uint256",
					"name": "tokenId",
					"type": "uint256"
				}
			],
			"name": "safeTransferFrom",
			"outputs": [],
			"stateMutability": "nonpayable",
			"type": "function"
		},
		{
			"inputs": [
				{
					"internalType": "address",
					"name": "from",
					"type": "address"
				},
				{
					"internalType": "address",
					"name": "to",
					"type": "address"
				},
				{
					"internalType": "uint256",
					"name": "tokenId",
					"type": "uint256"
				},
				{
					"internalType": "bytes",
					"name": "data",
					"type": "bytes"
				}
			],
			"name": "safeTransferFrom",
			"outputs": [],
			"stateMutability": "nonpayable",
			"type": "function"
		},
		{
			"inputs": [
				{
					"internalType": "address",
					"name": "operator",
					"type": "address"
				},
				{
					"internalType": "bool",
					"name": "approved",
					"type": "bool"
				}
			],
			"name": "setApprovalForAll",
			"outputs": [],
			"stateMutability": "nonpayable",
			"type": "function"
		},
		{
			"inputs": [
				{
					"internalType": "bytes4",
					"name": "interfaceId",
					"type": "bytes4"
				}
			],
			"name": "supportsInterface",
			"outputs": [
				{
					"internalType": "bool",
					"name": "",
					"type": "bool"
				}
			],
			"stateMutability": "view",
			"type": "function"
		},
		{
			"inputs": [],
			"name": "symbol",
			"outputs": [
				{
					"internalType": "string",
					"name": "",
					"type": "string"
				}
			],
			"stateMutability": "view",
			"type": "function"
		},
		{
			"inputs": [
				{
					"internalType": "uint256",
					"name": "tokenId",
					"type": "uint256"
				}
			],
			"name": "tokenURI",
			"outputs": [
				{
					"internalType": "string",
					"name": "",
					"type": "string"
				}
			],
			"stateMutability": "view",
			"type": "function"
		},
		{
			"inputs": [],
			"name": "totalSupply",
			"outputs": [
				{
					"internalType": "uint256",
					"name": "",
					"type": "uint256"
				}
			],
			"stateMutability": "view",
			"type": "function"
		},
		{
			"inputs": [
				{
					"internalType": "address",
					"name": "from",
					"type": "address"
				},
				{
					"internalType": "address",
					"name": "to",
					"type": "address"
				},
				{
					"internalType": "uint256",
					"name": "tokenId",
					"type": "uint256"
				}
			],
			"name": "transferFrom",
			"outputs": [],
			"stateMutability": "nonpayable",
			"type": "function"
		},
		{
			"inputs": [
				{
					"internalType": "address",
					"name": "to",
					"type": "address"
				},
				{
					"internalType": "string",
					"name": "uri",
					"type": "string"
				},
				{
					"internalType": "uint256",
					"name": "choice",
					"type": "uint256"
				}
			],
			"name": "updateURI",
			"outputs": [],
			"stateMutability": "nonpayable",
			"type": "function"
		},
		{
			"inputs": [
				{
					"internalType": "address",
					"name": "to",
					"type": "address"
				}
			],
			"name": "whiteList",
			"outputs": [],
			"stateMutability": "nonpayable",
			"type": "function"
		},
		{
			"inputs": [
				{
					"internalType": "address",
					"name": "",
					"type": "address"
				}
			],
			"name": "whitelist",
			"outputs": [
				{
					"internalType": "uint256",
					"name": "",
					"type": "uint256"
				}
			],
			"stateMutability": "view",
			"type": "function"
		}
	],
	"bytecode": "0x60806040527fc5d2460186f7233c927e7db2dcc703c0e500b653ca82273b7bfad8045d85a47060001b6008553480156200003857600080fd5b50604051620039ac380380620039ac83398181016040528101906200005e9190620003ac565b6040518060400160405280600581526020017f4d795342540000000000000000000000000000000000000000000000000000008152506040518060400160405280600481526020017f4d534254000000000000000000000000000000000000000000000000000000008152508160009080519060200190620000e29291906200015f565b508060019080519060200190620000fb9291906200015f565b5050508060069080519060200190620001169291906200015f565b5033600760006101000a81548173ffffffffffffffffffffffffffffffffffffffff021916908373ffffffffffffffffffffffffffffffffffffffff1602179055505062000462565b8280546200016d906200042c565b90600052602060002090601f016020900481019282620001915760008555620001dd565b82601f10620001ac57805160ff1916838001178555620001dd565b82800160010185558215620001dd579182015b82811115620001dc578251825591602001919060010190620001bf565b5b509050620001ec9190620001f0565b5090565b5b808211156200020b576000816000905550600101620001f1565b5090565b6000604051905090565b600080fd5b600080fd5b600080fd5b600080fd5b6000601f19601f8301169050919050565b7f4e487b7100000000000000000000000000000000000000000000000000000000600052604160045260246000fd5b62000278826200022d565b810181811067ffffffffffffffff821117156200029a57620002996200023e565b5b80604052505050565b6000620002af6200020f565b9050620002bd82826200026d565b919050565b600067ffffffffffffffff821115620002e057620002df6200023e565b5b620002eb826200022d565b9050602081019050919050565b60005b8381101562000318578082015181840152602081019050620002fb565b8381111562000328576000848401525b50505050565b6000620003456200033f84620002c2565b620002a3565b90508281526020810184848401111562000364576200036362000228565b5b62000371848285620002f8565b509392505050565b600082601f83011262000391576200039062000223565b5b8151620003a38482602086016200032e565b91505092915050565b600060208284031215620003c557620003c462000219565b5b600082015167ffffffffffffffff811115620003e657620003e56200021e565b5b620003f48482850162000379565b91505092915050565b7f4e487b7100000000000000000000000000000000000000000000000000000000600052602260045260246000fd5b600060028204905060018216806200044557607f821691505b602082108114156200045c576200045b620003fd565b5b50919050565b61353a80620004726000396000f3fe608060405234801561001057600080fd5b50600436106101735760003560e01c8063570ca735116100de578063a22cb46511610097578063c87b56dd11610071578063c87b56dd1461046e578063e77930ef1461049e578063e985e9c5146104ce578063f47b2930146104fe57610173565b8063a22cb46514610406578063a6b04bb914610422578063b88d4fde1461045257610173565b8063570ca7351461031c5780636352211e1461033a57806370a082311461036a57806375d0c0dc1461039a57806395d89b41146103b85780639b19251a146103d657610173565b8063153244d211610130578063153244d21461025e578063158b95651461027a57806318160ddd146102aa57806323b872dd146102c8578063372c12b1146102e457806342842e0e1461030057610173565b806301ffc9a71461017857806303a80dfb146101a857806306fdde03146101c4578063081812fc146101e2578063095ea7b3146102125780630f53a4701461022e575b600080fd5b610192600480360381019061018d9190612450565b61051a565b60405161019f9190612498565b60405180910390f35b6101c260048036038101906101bd9190612657565b6105fc565b005b6101cc61087b565b6040516101d9919061279a565b60405180910390f35b6101fc60048036038101906101f791906127f2565b61090d565b604051610209919061282e565b60405180910390f35b61022c60048036038101906102279190612849565b610953565b005b61024860048036038101906102439190612889565b610a6b565b6040516102559190612980565b60405180910390f35b61027860048036038101906102739190612889565b610d16565b005b610294600480360381019061028f9190612889565b610f26565b6040516102a1919061279a565b60405180910390f35b6102b2610ffa565b6040516102bf91906129b1565b60405180910390f35b6102e260048036038101906102dd91906129cc565b611004565b005b6102fe60048036038101906102f99190612889565b611036565b005b61031a600480360381019061031591906129cc565b611099565b005b6103246110b9565b604051610331919061282e565b60405180910390f35b610354600480360381019061034f91906127f2565b6110df565b604051610361919061282e565b60405180910390f35b610384600480360381019061037f9190612889565b611191565b60405161039191906129b1565b60405180910390f35b6103a2611249565b6040516103af919061279a565b60405180910390f35b6103c06112d7565b6040516103cd919061279a565b60405180910390f35b6103f060048036038101906103eb9190612889565b611369565b6040516103fd91906129b1565b60405180910390f35b610420600480360381019061041b9190612a4b565b611381565b005b61043c60048036038101906104379190612889565b611397565b604051610449919061279a565b60405180910390f35b61046c60048036038101906104679190612b2c565b61146b565b005b610488600480360381019061048391906127f2565b6114cd565b604051610495919061279a565b60405180910390f35b6104b860048036038101906104b39190612889565b611535565b6040516104c591906129b1565b60405180910390f35b6104e860048036038101906104e39190612baf565b61154d565b6040516104f59190612498565b60405180910390f35b61051860048036038101906105139190612bef565b6115e1565b005b60007f80ac58cd000000000000000000000000000000000000000000000000000000007bffffffffffffffffffffffffffffffffffffffffffffffffffffffff1916827bffffffffffffffffffffffffffffffffffffffffffffffffffffffff191614806105e557507f5b5e139f000000000000000000000000000000000000000000000000000000007bffffffffffffffffffffffffffffffffffffffffffffffffffffffff1916827bffffffffffffffffffffffffffffffffffffffffffffffffffffffff1916145b806105f557506105f48261181a565b5b9050919050565b600854600d60008673ffffffffffffffffffffffffffffffffffffffff1673ffffffffffffffffffffffffffffffffffffffff16815260200190815260200160002060000160405161064e9190612d5e565b60405180910390201461068d576040517fe4ed28f100000000000000000000000000000000000000000000000000000000815260040160405180910390fd5b8373ffffffffffffffffffffffffffffffffffffffff163373ffffffffffffffffffffffffffffffffffffffff16146106f2576040517f29c3b7ee00000000000000000000000000000000000000000000000000000000815260040160405180910390fd5b6040518060800160405280848152602001600b54815260200183815260200182815250600d60008673ffffffffffffffffffffffffffffffffffffffff1673ffffffffffffffffffffffffffffffffffffffff16815260200190815260200160002060008201518160000190805190602001906107709291906122d9565b506020820151816001015560408201518160020190805190602001906107979291906122d9565b5060608201518160030190805190602001906107b49291906122d9565b50905050600b54600e60008673ffffffffffffffffffffffffffffffffffffffff1673ffffffffffffffffffffffffffffffffffffffff1681526020019081526020016000208190555061080a84600b54611884565b6001600b600082825461081d9190612da4565b925050819055506001600960008282546108379190612da4565b925050819055507f3c3284d117c92d0b1699230960384e794dcba184cc48ff114fe4fed20c9b05658460405161086d919061282e565b60405180910390a150505050565b60606000805461088a90612c8d565b80601f01602080910402602001604051908101604052809291908181526020018280546108b690612c8d565b80156109035780601f106108d857610100808354040283529160200191610903565b820191906000526020600020905b8154815290600101906020018083116108e657829003601f168201915b5050505050905090565b6000610918826118a2565b6004600083815260200190815260200160002060009054906101000a900473ffffffffffffffffffffffffffffffffffffffff169050919050565b600061095e826110df565b90508073ffffffffffffffffffffffffffffffffffffffff168373ffffffffffffffffffffffffffffffffffffffff1614156109cf576040517f08c379a00000000000000000000000000000000000000000000000000000000081526004016109c690612e6c565b60405180910390fd5b8073ffffffffffffffffffffffffffffffffffffffff166109ee6118ed565b73ffffffffffffffffffffffffffffffffffffffff161480610a1d5750610a1c81610a176118ed565b61154d565b5b610a5c576040517f08c379a0000000000000000000000000000000000000000000000000000000008152600401610a5390612efe565b60405180910390fd5b610a6683836118f5565b505050565b610a7361235f565b600854600d60008473ffffffffffffffffffffffffffffffffffffffff1673ffffffffffffffffffffffffffffffffffffffff168152602001908152602001600020600001604051610ac59190612d5e565b60405180910390201415610b05576040517f8e8fe17c00000000000000000000000000000000000000000000000000000000815260040160405180910390fd5b600d60008373ffffffffffffffffffffffffffffffffffffffff1673ffffffffffffffffffffffffffffffffffffffff168152602001908152602001600020604051806080016040529081600082018054610b5f90612c8d565b80601f0160208091040260200160405190810160405280929190818152602001828054610b8b90612c8d565b8015610bd85780601f10610bad57610100808354040283529160200191610bd8565b820191906000526020600020905b815481529060010190602001808311610bbb57829003601f168201915b5050505050815260200160018201548152602001600282018054610bfb90612c8d565b80601f0160208091040260200160405190810160405280929190818152602001828054610c2790612c8d565b8015610c745780601f10610c4957610100808354040283529160200191610c74565b820191906000526020600020905b815481529060010190602001808311610c5757829003601f168201915b50505050508152602001600382018054610c8d90612c8d565b80601f0160208091040260200160405190810160405280929190818152602001828054610cb990612c8d565b8015610d065780601f10610cdb57610100808354040283529160200191610d06565b820191906000526020600020905b815481529060010190602001808311610ce957829003601f168201915b5050505050815250509050919050565b600854600d60008373ffffffffffffffffffffffffffffffffffffffff1673ffffffffffffffffffffffffffffffffffffffff168152602001908152602001600020600001604051610d689190612d5e565b60405180910390201415610da8576040517f8e8fe17c00000000000000000000000000000000000000000000000000000000815260040160405180910390fd5b8073ffffffffffffffffffffffffffffffffffffffff163373ffffffffffffffffffffffffffffffffffffffff1614610e0d576040517f29c3b7ee00000000000000000000000000000000000000000000000000000000815260040160405180910390fd5b610e58600d60008373ffffffffffffffffffffffffffffffffffffffff1673ffffffffffffffffffffffffffffffffffffffff168152602001908152602001600020600101546119ae565b600160096000828254610e6b9190612f1e565b92505081905550600d60008273ffffffffffffffffffffffffffffffffffffffff1673ffffffffffffffffffffffffffffffffffffffff16815260200190815260200160002060008082016000610ec29190612387565b6001820160009055600282016000610eda9190612387565b600382016000610eea9190612387565b50507fe22de1457cb61fb61b60176bc4235a9abd19466126b46692bc14fc573f09924981604051610f1b919061282e565b60405180910390a150565b6060600d60008373ffffffffffffffffffffffffffffffffffffffff1673ffffffffffffffffffffffffffffffffffffffff1681526020019081526020016000206002018054610f7590612c8d565b80601f0160208091040260200160405190810160405280929190818152602001828054610fa190612c8d565b8015610fee5780601f10610fc357610100808354040283529160200191610fee565b820191906000526020600020905b815481529060010190602001808311610fd157829003601f168201915b50505050509050919050565b6000600954905090565b6040517fa24e573d00000000000000000000000000000000000000000000000000000000815260040160405180910390fd5b6001600a60008282546110499190612da4565b92505081905550600a54600c60008373ffffffffffffffffffffffffffffffffffffffff1673ffffffffffffffffffffffffffffffffffffffff1681526020019081526020016000208190555050565b6110b48383836040518060200160405280600081525061146b565b505050565b600760009054906101000a900473ffffffffffffffffffffffffffffffffffffffff1681565b6000806002600084815260200190815260200160002060009054906101000a900473ffffffffffffffffffffffffffffffffffffffff169050600073ffffffffffffffffffffffffffffffffffffffff168173ffffffffffffffffffffffffffffffffffffffff161415611188576040517f08c379a000000000000000000000000000000000000000000000000000000000815260040161117f90612f9e565b60405180910390fd5b80915050919050565b60008073ffffffffffffffffffffffffffffffffffffffff168273ffffffffffffffffffffffffffffffffffffffff161415611202576040517f08c379a00000000000000000000000000000000000000000000000000000000081526004016111f990613030565b60405180910390fd5b600360008373ffffffffffffffffffffffffffffffffffffffff1673ffffffffffffffffffffffffffffffffffffffff168152602001908152602001600020549050919050565b6006805461125690612c8d565b80601f016020809104026020016040519081016040528092919081815260200182805461128290612c8d565b80156112cf5780601f106112a4576101008083540402835291602001916112cf565b820191906000526020600020905b8154815290600101906020018083116112b257829003601f168201915b505050505081565b6060600180546112e690612c8d565b80601f016020809104026020016040519081016040528092919081815260200182805461131290612c8d565b801561135f5780601f106113345761010080835404028352916020019161135f565b820191906000526020600020905b81548152906001019060200180831161134257829003601f168201915b5050505050905090565b600c6020528060005260406000206000915090505481565b61139361138c6118ed565b83836119ba565b5050565b6060600d60008373ffffffffffffffffffffffffffffffffffffffff1673ffffffffffffffffffffffffffffffffffffffff16815260200190815260200160002060030180546113e690612c8d565b80601f016020809104026020016040519081016040528092919081815260200182805461141290612c8d565b801561145f5780601f106114345761010080835404028352916020019161145f565b820191906000526020600020905b81548152906001019060200180831161144257829003601f168201915b50505050509050919050565b61147c6114766118ed565b83611b27565b6114bb576040517f08c379a00000000000000000000000000000000000000000000000000000000081526004016114b2906130c2565b60405180910390fd5b6114c784848484611bbc565b50505050565b60606114d8826118a2565b60006114e2611bee565b90506000815111611502576040518060200160405280600081525061152d565b8061150c84611c05565b60405160200161151d92919061311e565b6040516020818303038152906040525b915050919050565b600e6020528060005260406000206000915090505481565b6000600560008473ffffffffffffffffffffffffffffffffffffffff1673ffffffffffffffffffffffffffffffffffffffff16815260200190815260200160002060008373ffffffffffffffffffffffffffffffffffffffff1673ffffffffffffffffffffffffffffffffffffffff16815260200190815260200160002060009054906101000a900460ff16905092915050565b600854600d60008573ffffffffffffffffffffffffffffffffffffffff1673ffffffffffffffffffffffffffffffffffffffff1681526020019081526020016000206000016040516116339190612d5e565b60405180910390201415611673576040517f8e8fe17c00000000000000000000000000000000000000000000000000000000815260040160405180910390fd5b8273ffffffffffffffffffffffffffffffffffffffff163373ffffffffffffffffffffffffffffffffffffffff16146116d8576040517f29c3b7ee00000000000000000000000000000000000000000000000000000000815260040160405180910390fd5b600181141580156116ea575060008114155b15611721576040517f9c45400100000000000000000000000000000000000000000000000000000000815260040160405180910390fd5b60008114156117865781600d60008573ffffffffffffffffffffffffffffffffffffffff1673ffffffffffffffffffffffffffffffffffffffff16815260200190815260200160002060020190805190602001906117809291906122d9565b506117de565b81600d60008573ffffffffffffffffffffffffffffffffffffffff1673ffffffffffffffffffffffffffffffffffffffff16815260200190815260200160002060030190805190602001906117dc9291906122d9565b505b7fd456720fd185d4060f5cea4d82775d2af95048c1e10f227ec35bae950a4be2a88360405161180d919061282e565b60405180910390a1505050565b60007f01ffc9a7000000000000000000000000000000000000000000000000000000007bffffffffffffffffffffffffffffffffffffffffffffffffffffffff1916827bffffffffffffffffffffffffffffffffffffffffffffffffffffffff1916149050919050565b61189e828260405180602001604052806000815250611d66565b5050565b6118ab81611dc1565b6118ea576040517f08c379a00000000000000000000000000000000000000000000000000000000081526004016118e190612f9e565b60405180910390fd5b50565b600033905090565b816004600083815260200190815260200160002060006101000a81548173ffffffffffffffffffffffffffffffffffffffff021916908373ffffffffffffffffffffffffffffffffffffffff160217905550808273ffffffffffffffffffffffffffffffffffffffff16611968836110df565b73ffffffffffffffffffffffffffffffffffffffff167f8c5be1e5ebec7d5bd14f71427d1e84f3dd0314c0f7b2291e5b200ac8c7c3b92560405160405180910390a45050565b6119b781611e2d565b50565b8173ffffffffffffffffffffffffffffffffffffffff168373ffffffffffffffffffffffffffffffffffffffff161415611a29576040517f08c379a0000000000000000000000000000000000000000000000000000000008152600401611a209061318e565b60405180910390fd5b80600560008573ffffffffffffffffffffffffffffffffffffffff1673ffffffffffffffffffffffffffffffffffffffff16815260200190815260200160002060008473ffffffffffffffffffffffffffffffffffffffff1673ffffffffffffffffffffffffffffffffffffffff16815260200190815260200160002060006101000a81548160ff0219169083151502179055508173ffffffffffffffffffffffffffffffffffffffff168373ffffffffffffffffffffffffffffffffffffffff167f17307eab39ab6107e8899845ad3d59bd9653f200f220920489ca2b5937696c3183604051611b1a9190612498565b60405180910390a3505050565b600080611b33836110df565b90508073ffffffffffffffffffffffffffffffffffffffff168473ffffffffffffffffffffffffffffffffffffffff161480611b755750611b74818561154d565b5b80611bb357508373ffffffffffffffffffffffffffffffffffffffff16611b9b8461090d565b73ffffffffffffffffffffffffffffffffffffffff16145b91505092915050565b6040517fa24e573d00000000000000000000000000000000000000000000000000000000815260040160405180910390fd5b606060405180602001604052806000815250905090565b60606000821415611c4d576040518060400160405280600181526020017f30000000000000000000000000000000000000000000000000000000000000008152509050611d61565b600082905060005b60008214611c7f578080611c68906131ae565b915050600a82611c789190613226565b9150611c55565b60008167ffffffffffffffff811115611c9b57611c9a61252c565b5b6040519080825280601f01601f191660200182016040528015611ccd5781602001600182028036833780820191505090505b5090505b60008514611d5a57600182611ce69190612f1e565b9150600a85611cf59190613257565b6030611d019190612da4565b60f81b818381518110611d1757611d16613288565b5b60200101907effffffffffffffffffffffffffffffffffffffffffffffffffffffffffffff1916908160001a905350600a85611d539190613226565b9450611cd1565b8093505050505b919050565b611d708383611f4a565b611d7d6000848484612124565b611dbc576040517f08c379a0000000000000000000000000000000000000000000000000000000008152600401611db390613329565b60405180910390fd5b505050565b60008073ffffffffffffffffffffffffffffffffffffffff166002600084815260200190815260200160002060009054906101000a900473ffffffffffffffffffffffffffffffffffffffff1673ffffffffffffffffffffffffffffffffffffffff1614159050919050565b6000611e38826110df565b9050611e46816000846122ac565b611e516000836118f5565b6001600360008373ffffffffffffffffffffffffffffffffffffffff1673ffffffffffffffffffffffffffffffffffffffff1681526020019081526020016000206000828254611ea19190612f1e565b925050819055506002600083815260200190815260200160002060006101000a81549073ffffffffffffffffffffffffffffffffffffffff021916905581600073ffffffffffffffffffffffffffffffffffffffff168273ffffffffffffffffffffffffffffffffffffffff167fddf252ad1be2c89b69c2b068fc378daa952ba7f163c4a11628f55a4df523b3ef60405160405180910390a4611f46816000846122b1565b5050565b600073ffffffffffffffffffffffffffffffffffffffff168273ffffffffffffffffffffffffffffffffffffffff161415611fba576040517f08c379a0000000000000000000000000000000000000000000000000000000008152600401611fb190613395565b60405180910390fd5b611fc381611dc1565b15612003576040517f08c379a0000000000000000000000000000000000000000000000000000000008152600401611ffa90613401565b60405180910390fd5b61200f600083836122ac565b6001600360008473ffffffffffffffffffffffffffffffffffffffff1673ffffffffffffffffffffffffffffffffffffffff168152602001908152602001600020600082825461205f9190612da4565b92505081905550816002600083815260200190815260200160002060006101000a81548173ffffffffffffffffffffffffffffffffffffffff021916908373ffffffffffffffffffffffffffffffffffffffff160217905550808273ffffffffffffffffffffffffffffffffffffffff16600073ffffffffffffffffffffffffffffffffffffffff167fddf252ad1be2c89b69c2b068fc378daa952ba7f163c4a11628f55a4df523b3ef60405160405180910390a4612120600083836122b1565b5050565b60006121458473ffffffffffffffffffffffffffffffffffffffff166122b6565b1561229f578373ffffffffffffffffffffffffffffffffffffffff1663150b7a0261216e6118ed565b8786866040518563ffffffff1660e01b81526004016121909493929190613476565b6020604051808303816000875af19250505080156121cc57506040513d601f19601f820116820180604052508101906121c991906134d7565b60015b61224f573d80600081146121fc576040519150601f19603f3d011682016040523d82523d6000602084013e612201565b606091505b50600081511415612247576040517f08c379a000000000000000000000000000000000000000000000000000000000815260040161223e90613329565b60405180910390fd5b805181602001fd5b63150b7a0260e01b7bffffffffffffffffffffffffffffffffffffffffffffffffffffffff1916817bffffffffffffffffffffffffffffffffffffffffffffffffffffffff1916149150506122a4565b600190505b949350505050565b505050565b505050565b6000808273ffffffffffffffffffffffffffffffffffffffff163b119050919050565b8280546122e590612c8d565b90600052602060002090601f016020900481019282612307576000855561234e565b82601f1061232057805160ff191683800117855561234e565b8280016001018555821561234e579182015b8281111561234d578251825591602001919060010190612332565b5b50905061235b91906123c7565b5090565b6040518060800160405280606081526020016000815260200160608152602001606081525090565b50805461239390612c8d565b6000825580601f106123a557506123c4565b601f0160209004906000526020600020908101906123c391906123c7565b5b50565b5b808211156123e05760008160009055506001016123c8565b5090565b6000604051905090565b600080fd5b600080fd5b60007fffffffff0000000000000000000000000000000000000000000000000000000082169050919050565b61242d816123f8565b811461243857600080fd5b50565b60008135905061244a81612424565b92915050565b600060208284031215612466576124656123ee565b5b60006124748482850161243b565b91505092915050565b60008115159050919050565b6124928161247d565b82525050565b60006020820190506124ad6000830184612489565b92915050565b600073ffffffffffffffffffffffffffffffffffffffff82169050919050565b60006124de826124b3565b9050919050565b6124ee816124d3565b81146124f957600080fd5b50565b60008135905061250b816124e5565b92915050565b600080fd5b600080fd5b6000601f19601f8301169050919050565b7f4e487b7100000000000000000000000000000000000000000000000000000000600052604160045260246000fd5b6125648261251b565b810181811067ffffffffffffffff821117156125835761258261252c565b5b80604052505050565b60006125966123e4565b90506125a2828261255b565b919050565b600067ffffffffffffffff8211156125c2576125c161252c565b5b6125cb8261251b565b9050602081019050919050565b82818337600083830152505050565b60006125fa6125f5846125a7565b61258c565b90508281526020810184848401111561261657612615612516565b5b6126218482856125d8565b509392505050565b600082601f83011261263e5761263d612511565b5b813561264e8482602086016125e7565b91505092915050565b60008060008060808587031215612671576126706123ee565b5b600061267f878288016124fc565b945050602085013567ffffffffffffffff8111156126a05761269f6123f3565b5b6126ac87828801612629565b935050604085013567ffffffffffffffff8111156126cd576126cc6123f3565b5b6126d987828801612629565b925050606085013567ffffffffffffffff8111156126fa576126f96123f3565b5b61270687828801612629565b91505092959194509250565b600081519050919050565b600082825260208201905092915050565b60005b8381101561274c578082015181840152602081019050612731565b8381111561275b576000848401525b50505050565b600061276c82612712565b612776818561271d565b935061278681856020860161272e565b61278f8161251b565b840191505092915050565b600060208201905081810360008301526127b48184612761565b905092915050565b6000819050919050565b6127cf816127bc565b81146127da57600080fd5b50565b6000813590506127ec816127c6565b92915050565b600060208284031215612808576128076123ee565b5b6000612816848285016127dd565b91505092915050565b612828816124d3565b82525050565b6000602082019050612843600083018461281f565b92915050565b600080604083850312156128605761285f6123ee565b5b600061286e858286016124fc565b925050602061287f858286016127dd565b9150509250929050565b60006020828403121561289f5761289e6123ee565b5b60006128ad848285016124fc565b91505092915050565b600082825260208201905092915050565b60006128d282612712565b6128dc81856128b6565b93506128ec81856020860161272e565b6128f58161251b565b840191505092915050565b612909816127bc565b82525050565b6000608083016000830151848203600086015261292c82826128c7565b91505060208301516129416020860182612900565b506040830151848203604086015261295982826128c7565b9150506060830151848203606086015261297382826128c7565b9150508091505092915050565b6000602082019050818103600083015261299a818461290f565b905092915050565b6129ab816127bc565b82525050565b60006020820190506129c660008301846129a2565b92915050565b6000806000606084860312156129e5576129e46123ee565b5b60006129f3868287016124fc565b9350506020612a04868287016124fc565b9250506040612a15868287016127dd565b9150509250925092565b612a288161247d565b8114612a3357600080fd5b50565b600081359050612a4581612a1f565b92915050565b60008060408385031215612a6257612a616123ee565b5b6000612a70858286016124fc565b9250506020612a8185828601612a36565b9150509250929050565b600067ffffffffffffffff821115612aa657612aa561252c565b5b612aaf8261251b565b9050602081019050919050565b6000612acf612aca84612a8b565b61258c565b905082815260208101848484011115612aeb57612aea612516565b5b612af68482856125d8565b509392505050565b600082601f830112612b1357612b12612511565b5b8135612b23848260208601612abc565b91505092915050565b60008060008060808587031215612b4657612b456123ee565b5b6000612b54878288016124fc565b9450506020612b65878288016124fc565b9350506040612b76878288016127dd565b925050606085013567ffffffffffffffff811115612b9757612b966123f3565b5b612ba387828801612afe565b91505092959194509250565b60008060408385031215612bc657612bc56123ee565b5b6000612bd4858286016124fc565b9250506020612be5858286016124fc565b9150509250929050565b600080600060608486031215612c0857612c076123ee565b5b6000612c16868287016124fc565b935050602084013567ffffffffffffffff811115612c3757612c366123f3565b5b612c4386828701612629565b9250506040612c54868287016127dd565b9150509250925092565b7f4e487b7100000000000000000000000000000000000000000000000000000000600052602260045260246000fd5b60006002820490506001821680612ca557607f821691505b60208210811415612cb957612cb8612c5e565b5b50919050565b600081905092915050565b60008190508160005260206000209050919050565b60008154612cec81612c8d565b612cf68186612cbf565b94506001821660008114612d115760018114612d2257612d55565b60ff19831686528186019350612d55565b612d2b85612cca565b60005b83811015612d4d57815481890152600182019150602081019050612d2e565b838801955050505b50505092915050565b6000612d6a8284612cdf565b915081905092915050565b7f4e487b7100000000000000000000000000000000000000000000000000000000600052601160045260246000fd5b6000612daf826127bc565b9150612dba836127bc565b9250827fffffffffffffffffffffffffffffffffffffffffffffffffffffffffffffffff03821115612def57612dee612d75565b5b828201905092915050565b7f4552433732313a20617070726f76616c20746f2063757272656e74206f776e6560008201527f7200000000000000000000000000000000000000000000000000000000000000602082015250565b6000612e5660218361271d565b9150612e6182612dfa565b604082019050919050565b60006020820190508181036000830152612e8581612e49565b9050919050565b7f4552433732313a20617070726f76652063616c6c6572206973206e6f7420746f60008201527f6b656e206f776e6572206e6f7220617070726f76656420666f7220616c6c0000602082015250565b6000612ee8603e8361271d565b9150612ef382612e8c565b604082019050919050565b60006020820190508181036000830152612f1781612edb565b9050919050565b6000612f29826127bc565b9150612f34836127bc565b925082821015612f4757612f46612d75565b5b828203905092915050565b7f4552433732313a20696e76616c696420746f6b656e2049440000000000000000600082015250565b6000612f8860188361271d565b9150612f9382612f52565b602082019050919050565b60006020820190508181036000830152612fb781612f7b565b9050919050565b7f4552433732313a2061646472657373207a65726f206973206e6f74206120766160008201527f6c6964206f776e65720000000000000000000000000000000000000000000000602082015250565b600061301a60298361271d565b915061302582612fbe565b604082019050919050565b600060208201905081810360008301526130498161300d565b9050919050565b7f4552433732313a2063616c6c6572206973206e6f7420746f6b656e206f776e6560008201527f72206e6f7220617070726f766564000000000000000000000000000000000000602082015250565b60006130ac602e8361271d565b91506130b782613050565b604082019050919050565b600060208201905081810360008301526130db8161309f565b9050919050565b600081905092915050565b60006130f882612712565b61310281856130e2565b935061311281856020860161272e565b80840191505092915050565b600061312a82856130ed565b915061313682846130ed565b91508190509392505050565b7f4552433732313a20617070726f766520746f2063616c6c657200000000000000600082015250565b600061317860198361271d565b915061318382613142565b602082019050919050565b600060208201905081810360008301526131a78161316b565b9050919050565b60006131b9826127bc565b91507fffffffffffffffffffffffffffffffffffffffffffffffffffffffffffffffff8214156131ec576131eb612d75565b5b600182019050919050565b7f4e487b7100000000000000000000000000000000000000000000000000000000600052601260045260246000fd5b6000613231826127bc565b915061323c836127bc565b92508261324c5761324b6131f7565b5b828204905092915050565b6000613262826127bc565b915061326d836127bc565b92508261327d5761327c6131f7565b5b828206905092915050565b7f4e487b7100000000000000000000000000000000000000000000000000000000600052603260045260246000fd5b7f4552433732313a207472616e7366657220746f206e6f6e20455243373231526560008201527f63656976657220696d706c656d656e7465720000000000000000000000000000602082015250565b600061331360328361271d565b915061331e826132b7565b604082019050919050565b6000602082019050818103600083015261334281613306565b9050919050565b7f4552433732313a206d696e7420746f20746865207a65726f2061646472657373600082015250565b600061337f60208361271d565b915061338a82613349565b602082019050919050565b600060208201905081810360008301526133ae81613372565b9050919050565b7f4552433732313a20746f6b656e20616c7265616479206d696e74656400000000600082015250565b60006133eb601c8361271d565b91506133f6826133b5565b602082019050919050565b6000602082019050818103600083015261341a816133de565b9050919050565b600081519050919050565b600082825260208201905092915050565b600061344882613421565b613452818561342c565b935061346281856020860161272e565b61346b8161251b565b840191505092915050565b600060808201905061348b600083018761281f565b613498602083018661281f565b6134a560408301856129a2565b81810360608301526134b7818461343d565b905095945050505050565b6000815190506134d181612424565b92915050565b6000602082840312156134ed576134ec6123ee565b5b60006134fb848285016134c2565b9150509291505056fea2646970667358221220bafcf872532ca8057495fb03d73eb1d155ac2f4bcfc8b302f56f8ce835272b7a64736f6c634300080b0033",
	"linkReferences": {},
	"deployedLinkReferences": {}
}